:100000000C9462000C94BE050C9497050C948A0025
:100010000C948A000C948A000C948A000C948A0038
:100020000C948A000C948A000C948A000C948A0028
:100030000C948A000C948A000C948A000C948A0018
:100040000C944D050C948A000C940B060C94E50559
:100050000C948A000C948A000C948A000C948A00F8
:100060000C948A000C948A000000000024002700F1
:100070002A0000000000250028002B0000000008D6
:10008000000201000003040700000000000000005F
:10009000010204081020408001020408102001021F
:1000A000040810200000000023002600290004049A
:1000B0000404040404040202020202020303030310
:1000C00003033D0611241FBECFEFD8E0DEBFCDBF36
:1000D00011E0A0E0B1E0E6E4F0E102C005900D928D
:1000E000AE32B107D9F722E0AEE2B1E001C01D9215
:1000F000A832B207E1F710E0C2E6D0E004C02197D1
:10010000FE010E941B08C136D107C9F70E94F506FF
:100110000C9421080C940000833081F028F4813085
:1001200099F08230A9F008958730A9F08830C9F09D
:100130008430B1F4809180008F7D03C08091800075
:100140008F7780938000089584B58F7784BD08955C
:1001500084B58F7DFBCF8091B0008F778093B00006
:1001600008958091B0008F7DF9CF1F93CF93DF93D7
:10017000E9E8F0E09491EDE9F0E0D491EBEBF0E008
:10018000C491CC23B9F0182F992319F0892F0E941C
:100190008C00EC2FF0E0EE0FFF1FEE58FF4FA59103
:1001A000B4918FB7F894EC91111108C0D095DE236B
:1001B000DC938FBFDF91CF911F910895DE2BF8CF95
:1001C000CF93DF9390E0FC01E057FF4F24918255DD
:1001D0009F4FFC0184918823D1F090E0880F991FF4
:1001E000FC01E859FF4FA591B491FC01EE58FF4F77
:1001F000C591D491623071F49FB7F8943C91822FED
:10020000809583238C93E8812E2B28839FBFDF91D9
:10021000CF9108958FB7F894EC912E2B2C938FBF2C
:10022000F6CF3FB7F8948091770190917801A09133
:100230007901B0917A0126B5A89B05C02F3F19F02E
:100240000196A11DB11D3FBFBA2FA92F982F882756
:10025000BC01CD01620F711D811D911D42E0660F31
:10026000771F881F991F4A95D1F708952FB7F894E3
:100270006091730170917401809175019091760184
:100280002FBF08950895AF92BF92CF92DF92EF9261
:10029000FF920F931F93CF93DF936C017B018B0130
:1002A000040F151FEB015E01AE18BF08C017D10780
:1002B00059F06991D601ED91FC910190F081E02D0A
:1002C000C6010995892B79F7C501DF91CF911F915F
:1002D0000F91FF90EF90DF90CF90BF90AF90089577
:1002E000FC01538D448D252F30E0842F90E0821B3C
:1002F000930B541710F0CF96089501970895FC01C1
:10030000918D828D981761F0A28DAE0FBF2FB11D18
:100310005D968C91928D9F5F9F73928F90E0089570
:100320008FEF9FEF0895FC01918D828D981731F02A
:10033000828DE80FF11D858D90E008958FEF9FEF7E
:100340000895FC01918D228D892F90E0805C9F4F54
:10035000821B91098F73992708958BE791E00E9482
:10036000A10121E0892B09F420E0822F089580E08B
:1003700090E0892B29F00E94AD0181110C940000BE
:100380000895FC01A48DA80FB92FB11DA35ABF4F2A
:100390002C91848D90E001968F739927848FA68984
:1003A000B7892C93A089B1898C91837080648C93D8
:1003B000938D848D981306C00288F389E02D808187
:1003C0008F7D80830895EF92FF920F931F93CF93B9
:1003D000DF93EC0181E0888F9B8D8C8D98131AC080
:1003E000E889F989808185FF15C09FB7F894EE8967
:1003F000FF896083E889F9898081837080648083C4
:100400009FBF81E090E0DF91CF911F910F91FF900E
:10041000EF900895F62E0B8D10E00F5F1F4F0F73B6
:100420001127E02E8C8D8E110CC00FB607FCFACF71
:10043000E889F989808185FFF5CFCE010E94C1014D
:10044000F1CFEB8DEC0FFD2FF11DE35AFF4FF08242
:100450009FB7F8940B8FEA89FB8980818062CFCFA8
:10046000CF93DF93EC01888D8823B9F0AA89BB89EB
:10047000E889F9898C9185FD03C0808186FD0DC0D6
:100480000FB607FCF7CF8C9185FFF2CF808185FFF7
:10049000EDCFCE010E94C101E9CFDF91CF91089548
:1004A0008F929F92AF92BF92CF92DF92EF92FF9284
:1004B0000F931F93CF93DF93EC018B010E943601C2
:1004C0006B017C0180912E0190912F01A091300150
:1004D000B091310146015701881A990AAA0ABB0A4C
:1004E000CE010D2E000CAA0BBB0B88169906AA068E
:1004F000BB0618F081E00E94B5000C0F1D1F012EF5
:10050000000C220B330B80169106A206B30658F09E
:1005100080E00E94B500C0922E01D0922F01E0929F
:100520003001F0923101DF91CF911F910F91FF9037
:10053000EF90DF90CF90BF90AF909F908F900895F5
:100540008BE791E00E94A101181619062CF48BE7A5
:1005500091E00E947F01F4CF0895DC01ED91FD91BF
:100560008081ED91FD919081ED91FD916C91637091
:100570008E2309F064609F2309F06860EAECF2E0E2
:10058000E60FF11D659565956D936D917D918D914A
:100590009D91099423C01AC012C016C010C01EC07D
:1005A00009C014C013C006C019C009C00DC007C0DF
:1005B0000DC014C062507040804090400BC061502C
:1005C00070408040904006C06E5F01C06F5F7F4FFB
:1005D0008F4F9F4F9E938E937E936E93089580913D
:1005E0001802909119020C94AD0280911A02909118
:1005F0001B020C94AD02FC0101900020E9F7319739
:10060000AF01481B590BBC018BE791E00C944301EF
:100610008F929F92AF92BF920F931F93CF93DF93CE
:10062000CDB7DEB7A1970FB6F894DEBF0FBECDBF32
:1006300019A2423008F44AE08E010F5D1F4F842E4C
:10064000912CB12CA12CA50194010E94DA07E62F70
:10065000B901CA01EA30F4F4E05DD801EE938D01EE
:10066000232B242B252B79F790E080E0109719F0AD
:10067000CD010E94FB02A1960FB6F894DEBF0FBE1B
:10068000CDBFDF91CF911F910F91BF90AF909F9001
:100690008F900895E95CE1CFCF92DF92EF92FF92C5
:1006A000CF93DF936B017C016DE28BE791E00E94B9
:1006B000E301EC0166277727CB016C197D098E09D0
:1006C0009F094AE00E9408038C0F9D1FDF91CF9184
:1006D000FF90EF90DF90CF9008950F931F93CF93EB
:1006E000DF938B01EA01682F8BE791E00E94E30121
:1006F000B801110F880B990B97FF16C00E944C038D
:1007000084E291E00E94FB02BE01DD0F880B990B91
:1007100097FF0EC00E944C0386E291E0DF91CF91DB
:100720001F910F910C94FB024AE00E940803E8CF4E
:100730004AE00E940803F0CF4F925F926F927F923F
:10074000AF92BF92CF92DF92EF92FF920F931F93DF
:10075000CF93DF9394E0E92E91E0F92E0EE411E0BF
:10076000C2E3D1E0F701C190D1907F019601332718
:10077000F901E458FF4F8491F901E057FF4FB4901D
:10078000F901E255FF4FA490AA2009F44EC081114F
:100790000E948C00EA2DF0E0EE0FFF1FEC55FF4F9A
:1007A000A591B491EC91BE2291E080E009F490E033
:1007B000A92EB82EF801808191818A159B05E9F058
:1007C0000E943601488059806A807B8064197509CF
:1007D00086099709633371058105910570F0F80169
:1007E000B182A082A501B60189E40E946D030E9436
:1007F0003601688379838A839B830E5F1F4F24961B
:10080000F2E1EF16F1E0FF0609F0ACCFDF91CF91F6
:100810001F910F91FF90EF90DF90CF90BF90AF901E
:100820007F906F905F904F900895B12CA12CC2CF14
:10083000EF92FF920F931F93CF93DF9382E0F82EF6
:10084000EE24E394CFEFDFEF01E010E08BE791E0DF
:100850000E94A101181619060CF07AC08BE791E0EE
:100860000E947F01282F90916901913009F453C0B3
:1008700008F44AC0923051F7682F6053770B6A3002
:10088000710508F44EC02A3009F7E0916701F0E0E5
:10089000EE59FE4F108280916801853491F50E94D7
:1008A000360160935E0170935F01809360019093C5
:1008B000610180915C0190915D01029711F5D093E7
:1008C0004F01C0934E01D0935101C0935001D0937A
:1008D0005301C0935201D0935501C0935401D0935A
:1008E0005701C0935601D0935901C0935801D0933A
:1008F0005B01C0935A010E949C0310935D01009319
:100900005C0110926901A2CF80936801E0926901B5
:10091000109267019BCF682F6053770B6A30710587
:1009200058F4E091670191E09E0F90936701F0E029
:10093000EE59FE4F80838ACF2A3309F087CFE091AA
:100940006701F0E0EE59FE4F1082F0926901E0CFAE
:10095000DF91CF911F910F91FF90EF9008958F92AB
:100960009F92AF92BF92CF92DF92EF92FF928091CF
:100970005E0190915F01A0916001B0916101892BAE
:100980008A2B8B2B09F04BC080915E0190915F0107
:10099000A0916001B0916101892B8A2B8B2BB9F555
:1009A0000E9418040E94A00289E291E00E94FB02CA
:1009B00086E291E00E94FB020E9411014B015C0162
:1009C00088ECC82ED12CE12CF12C0E941101681961
:1009D00079098A099B09683E734081059105A8F34E
:1009E00021E0C21AD108E108F10888EE880E83E000
:1009F000981EA11CB11CC114D104E104F10429F713
:100A000068EE73E088EE93E00E945002BDCF81E073
:100A100090E090935D0180935C010E94A0020E948F
:100A20003601C0905E01D0905F01E0906001F090CF
:100A300061016C197D098E099F0961317742810539
:100A40009105D8F068EC70E084EF91E00E945002CC
:100A500080915C0190915D01019731F482E090E01A
:100A600090935D0180935C01FF90EF90DF90CF90B9
:100A7000BF90AF909F908F90089581E090E0909309
:100A80005D0180935C01FF90EF90DF90CF90BF906D
:100A9000AF909F908F900C94B5001F920F920FB65D
:100AA0000F9211242F933F938F939F93AF93BF93F4
:100AB0008091730190917401A0917501B0917601BC
:100AC0003091720123E0230F2D3758F50196A11DB7
:100AD000B11D209372018093730190937401A093D0
:100AE0007501B09376018091770190917801A09182
:100AF0007901B0917A010196A11DB11D8093770112
:100B000090937801A0937901B0937A01BF91AF914E
:100B10009F918F913F912F910F900FBE0F901F903B
:100B2000189526E8230F0296A11DB11DD2CF1F9262
:100B30000F920FB60F9211242F933F934F935F9311
:100B40006F937F938F939F93AF93BF93EF93FF9395
:100B5000E0910201F09103010995FF91EF91BF919E
:100B6000AF919F918F917F916F915F914F913F9145
:100B70002F910F900FBE0F901F9018951F920F92FC
:100B80000FB60F9211242F933F934F935F936F9360
:100B90007F938F939F93AF93BF93EF93FF93E091D6
:100BA0000001F09101010995FF91EF91BF91AF9183
:100BB0009F918F917F916F915F914F913F912F9175
:100BC0000F900FBE0F901F9018951F920F920FB6A7
:100BD0000F9211242F933F934F935F936F937F93C3
:100BE0008F939F93AF93BF93EF93FF938BE791E026
:100BF0000E94C101FF91EF91BF91AF919F918F91A1
:100C00007F916F915F914F913F912F910F900FBE08
:100C10000F901F9018951F920F920FB60F921124EC
:100C20002F938F939F93EF93FF93E0918B01F0911C
:100C30008C018081E0919101F091920182FD1BC0B5
:100C40009081809194018F5F8F732091950182171D
:100C500041F0E0919401F0E0E558FE4F958F8093CC
:100C60009401FF91EF919F918F912F910F900FBE63
:100C70000F901F9018958081F4CFCF93DF9310923F
:100C80007E0110927D0188EE93E0A0E0B0E08093B9
:100C90007F0190938001A0938101B093820186E14E
:100CA00091E090937C0180937B0185EC90E09093A0
:100CB00088018093870184EC90E090938A0180936F
:100CC000890180EC90E090938C0180938B0181EC02
:100CD00090E090938E0180938D0182EC90E0909350
:100CE000900180938F0186EC90E090939201809325
:100CF0009101109294011092950110929601109218
:100D0000970162E082E00E94E00062E083E00E94DE
:100D1000E000E0EBF0E0E491F0E0EE0FFF1FEC55B7
:100D2000FF4FA591B491B0931D02A0931C02E2E97C
:100D3000F0E0449140932002E1EBF0E0E491F0E038
:100D4000EE0FFF1FEC55FF4FC591D491D0931F02BA
:100D5000C0931E02E3E9F0E0E491E09321021092D7
:100D600023021092240210922502109226022BE3F5
:100D70003FE1C9010197F1F79C91842F892391E00C
:100D800009F490E08881E82309F092602CE132E0D8
:100D90009093220230931902209318028FEE92E072
:100DA0009093010180930001809169008C7F8160A4
:100DB00080936900E89A81E08093270230931B02B8
:100DC00020931A0285EF92E0909303018093020131
:100DD00080916900837F846080936900E99A82E052
:100DE00080932702DF91CF910895789484B5826033
:100DF00084BD84B5816084BD85B5826085BD85B5BF
:100E0000816085BD80916E00816080936E0010923C
:100E100081008091810082608093810080918100B7
:100E20008160809381008091800081608093800048
:100E30008091B10084608093B1008091B0008160A6
:100E40008093B00080917A00846080937A008091D2
:100E50007A00826080937A0080917A00816080932A
:100E60007A0080917A00806880937A001092C100A5
:100E7000C4E0D1E08881229662E00E94E00081E037
:100E8000C231D807B9F761E08DE00E94E000E0913F
:100E90008B01F0918C0182E08083E0918701F091D9
:100EA00088011082E0918901F0918A0180E18083BC
:100EB00010929301E0918F01F091900186E0808380
:100EC000E0918D01F0918E01808180618083E091BD
:100ED0008D01F0918E01808188608083E0918D0189
:100EE000F0918E01808180688083E0918D01F09186
:100EF0008E0180818F7D80830E94AF0484E0C82EA4
:100F0000D12CE12CF12CC0E0D0E00E9418040E940A
:100F1000AF040E949C0380912702823008F048C0F1
:100F2000F8948CE192E00E94AD02609123027091EE
:100F3000240280912502909126027894A7019601BF
:100F40000E94FC0720936E0130936F014093700163
:100F50005093710180916A0190916B01A0916C0195
:100F6000B0916D01281739074A075B07B1F0A90155
:100F700070E060E082E50E946D0380916E019091C7
:100F80006F01A0917001B091710180936A019093FB
:100F90006B01A0936C01B0936D01209709F4B5CF5C
:100FA0000E94AD01882309F4B0CF0E940000ADCFAC
:100FB000F894BBCFA1E21A2EAA1BBB1BFD010DC0EA
:100FC000AA1FBB1FEE1FFF1FA217B307E407F507F9
:100FD00020F0A21BB30BE40BF50B661F771F881FD5
:100FE000991F1A9469F760957095809590959B016B
:100FF000AC01BD01CF010895052E97FB1EF40094AE
:101000000E94130857FD07D00E94DA0707FC03D09F
:101010004EF40C94130850954095309521953F4F10
:101020004F4F5F4F089590958095709561957F4FD4
:101030008F4F9F4F0895EE0FFF1F0590F491E02D05
:061040000994F894FFCFB3
:1010460042014201040005000600070008000900ED
:101056000A0000000000E301430170013002A10113
:0E1066007F0193013A000D0A0045303A300038
:00000001FF
